{
  "contractName": "MultiSigWallet",
  "abi": [
    {
      "inputs": [
        {
          "internalType": "address[]",
          "name": "_approvers",
          "type": "address[]"
        },
        {
          "internalType": "uint256",
          "name": "_quorum",
          "type": "uint256"
        }
      ],
      "stateMutability": "payable",
      "type": "constructor",
      "payable": true
    },
    {
      "inputs": [
        {
          "internalType": "uint256",
          "name": "",
          "type": "uint256"
        }
      ],
      "name": "approvers",
      "outputs": [
        {
          "internalType": "address",
          "name": "",
          "type": "address"
        }
      ],
      "stateMutability": "view",
      "type": "function",
      "constant": true
    },
    {
      "inputs": [],
      "name": "quorum",
      "outputs": [
        {
          "internalType": "uint256",
          "name": "",
          "type": "uint256"
        }
      ],
      "stateMutability": "view",
      "type": "function",
      "constant": true
    },
    {
      "inputs": [
        {
          "internalType": "uint256",
          "name": "_amount",
          "type": "uint256"
        },
        {
          "internalType": "address payable",
          "name": "_to",
          "type": "address"
        }
      ],
      "name": "createTransfer",
      "outputs": [],
      "stateMutability": "nonpayable",
      "type": "function"
    },
    {
      "inputs": [
        {
          "internalType": "uint256",
          "name": "id",
          "type": "uint256"
        }
      ],
      "name": "sendTransfer",
      "outputs": [],
      "stateMutability": "nonpayable",
      "type": "function"
    }
  ],
  "bytecode": "0x608060405260405162000d0638038062000d06833981810160405281019062000029919062000328565b81600090805190602001906200004192919062000051565b508060018190555050506200038e565b828054828255906000526020600020908101928215620000cd579160200282015b82811115620000cc5782518260006101000a81548173ffffffffffffffffffffffffffffffffffffffff021916908373ffffffffffffffffffffffffffffffffffffffff1602179055509160200191906001019062000072565b5b509050620000dc9190620000e0565b5090565b5b80821115620000fb576000816000905550600101620000e1565b5090565b6000604051905090565b600080fd5b600080fd5b600080fd5b6000601f19601f8301169050919050565b7f4e487b7100000000000000000000000000000000000000000000000000000000600052604160045260246000fd5b620001638262000118565b810181811067ffffffffffffffff8211171562000185576200018462000129565b5b80604052505050565b60006200019a620000ff565b9050620001a8828262000158565b919050565b600067ffffffffffffffff821115620001cb57620001ca62000129565b5b602082029050602081019050919050565b600080fd5b600073ffffffffffffffffffffffffffffffffffffffff82169050919050565b60006200020e82620001e1565b9050919050565b620002208162000201565b81146200022c57600080fd5b50565b600081519050620002408162000215565b92915050565b60006200025d6200025784620001ad565b6200018e565b90508083825260208201905060208402830185811115620002835762000282620001dc565b5b835b81811015620002b057806200029b88826200022f565b84526020840193505060208101905062000285565b5050509392505050565b600082601f830112620002d257620002d162000113565b5b8151620002e484826020860162000246565b91505092915050565b6000819050919050565b6200030281620002ed565b81146200030e57600080fd5b50565b6000815190506200032281620002f7565b92915050565b6000806040838503121562000342576200034162000109565b5b600083015167ffffffffffffffff8111156200036357620003626200010e565b5b6200037185828601620002ba565b9250506020620003848582860162000311565b9150509250929050565b610968806200039e6000396000f3fe608060405234801561001057600080fd5b506004361061004c5760003560e01c80631703a018146100515780634c12fa471461006f578063d1c68d1e1461008b578063d3650fb8146100a7575b600080fd5b6100596100d7565b6040516100669190610650565b60405180910390f35b610089600480360381019061008491906106fa565b6100dd565b005b6100a560048036038101906100a0919061073a565b6102b9565b005b6100c160048036038101906100bc919061073a565b6105f8565b6040516100ce9190610788565b60405180910390f35b60015481565b6000805b600080549050811015610177573373ffffffffffffffffffffffffffffffffffffffff1660008281548110610119576101186107a3565b5b9060005260206000200160009054906101000a900473ffffffffffffffffffffffffffffffffffffffff1673ffffffffffffffffffffffffffffffffffffffff160361016457600191505b808061016f90610801565b9150506100e1565b5060019050806101bc576040517f08c379a00000000000000000000000000000000000000000000000000000000081526004016101b3906108a6565b60405180910390fd5b6040518060a0016040528060045481526020018481526020018373ffffffffffffffffffffffffffffffffffffffff1681526020016000815260200160001515815250600260006004548152602001908152602001600020600082015181600001556020820151816001015560408201518160020160006101000a81548173ffffffffffffffffffffffffffffffffffffffff021916908373ffffffffffffffffffffffffffffffffffffffff1602179055506060820151816003015560808201518160040160006101000a81548160ff021916908315150217905550905050600460008154809291906102af90610801565b9190505550505050565b6000805b600080549050811015610353573373ffffffffffffffffffffffffffffffffffffffff16600082815481106102f5576102f46107a3565b5b9060005260206000200160009054906101000a900473ffffffffffffffffffffffffffffffffffffffff1673ffffffffffffffffffffffffffffffffffffffff160361034057600191505b808061034b90610801565b9150506102bd565b506001905080610398576040517f08c379a000000000000000000000000000000000000000000000000000000000815260040161038f906108a6565b60405180910390fd5b600015156002600084815260200190815260200160002060040160009054906101000a900460ff16151514610402576040517f08c379a00000000000000000000000000000000000000000000000000000000081526004016103f990610912565b60405180910390fd5b6001546002600084815260200190815260200160002060030154106104f45760016002600084815260200190815260200160002060040160006101000a81548160ff02191690831515021790555060006002600084815260200190815260200160002060020160009054906101000a900473ffffffffffffffffffffffffffffffffffffffff1690506000600260008581526020019081526020016000206001015490508173ffffffffffffffffffffffffffffffffffffffff166108fc829081150290604051600060405180830381858888f193505050501580156104ec573d6000803e3d6000fd5b5050506105f4565b60001515600360003373ffffffffffffffffffffffffffffffffffffffff1673ffffffffffffffffffffffffffffffffffffffff168152602001908152602001600020600084815260200190815260200160002060009054906101000a900460ff161515036105f3576001600360003373ffffffffffffffffffffffffffffffffffffffff1673ffffffffffffffffffffffffffffffffffffffff168152602001908152602001600020600084815260200190815260200160002060006101000a81548160ff0219169083151502179055506002600083815260200190815260200160002060030160008154809291906105ed90610801565b91905055505b5b5050565b6000818154811061060857600080fd5b906000526020600020016000915054906101000a900473ffffffffffffffffffffffffffffffffffffffff1681565b6000819050919050565b61064a81610637565b82525050565b60006020820190506106656000830184610641565b92915050565b600080fd5b61067981610637565b811461068457600080fd5b50565b60008135905061069681610670565b92915050565b600073ffffffffffffffffffffffffffffffffffffffff82169050919050565b60006106c78261069c565b9050919050565b6106d7816106bc565b81146106e257600080fd5b50565b6000813590506106f4816106ce565b92915050565b600080604083850312156107115761071061066b565b5b600061071f85828601610687565b9250506020610730858286016106e5565b9150509250929050565b6000602082840312156107505761074f61066b565b5b600061075e84828501610687565b91505092915050565b60006107728261069c565b9050919050565b61078281610767565b82525050565b600060208201905061079d6000830184610779565b92915050565b7f4e487b7100000000000000000000000000000000000000000000000000000000600052603260045260246000fd5b7f4e487b7100000000000000000000000000000000000000000000000000000000600052601160045260246000fd5b600061080c82610637565b91507fffffffffffffffffffffffffffffffffffffffffffffffffffffffffffffffff820361083e5761083d6107d2565b5b600182019050919050565b600082825260208201905092915050565b7f6f6e6c7920617070726f76657220616c6c6f7765640000000000000000000000600082015250565b6000610890601583610849565b915061089b8261085a565b602082019050919050565b600060208201905081810360008301526108bf81610883565b9050919050565b7f7472616e736665722068617320616c7265616479206265656e2073656e740000600082015250565b60006108fc601e83610849565b9150610907826108c6565b602082019050919050565b6000602082019050818103600083015261092b816108ef565b905091905056fea2646970667358221220d97dfff97ca112ad799ee1245f35dccb358e9eb319e2285c9c2f64358e1732f564736f6c634300080d0033",
  "immutableReferences": {},
  "source": "pragma solidity ^0.8.0;\r\n\r\ncontract MultiSigWallet {\r\n    address[] public approvers;\r\n    uint public quorum;\r\n    struct Transfer {\r\n        uint id;\r\n        uint amount;\r\n        address payable to;\r\n        uint approvals;\r\n        bool sent;\r\n    }\r\n    mapping(uint => Transfer) transfers;\r\n    mapping(address => mapping(uint=>bool)) approvals;\r\n    uint nextId;\r\n\r\n    constructor(address[] memory _approvers, uint _quorum) payable {\r\n        approvers = _approvers;\r\n        quorum = _quorum;\r\n    }\r\n\r\n    function createTransfer(uint _amount, address payable _to) external onlyApprover() {\r\n        transfers[nextId] = Transfer(\r\n            nextId,\r\n            _amount,\r\n            _to,\r\n            0,\r\n            false\r\n        );\r\n        nextId++;\r\n    }\r\n\r\n    function sendTransfer(uint id) external onlyApprover() {\r\n        require(transfers[id].sent == false, 'transfer has already been sent');\r\n        if(transfers[id].approvals >= quorum) {\r\n            transfers[id].sent = true;\r\n            address payable to = transfers[id].to;\r\n            uint amount = transfers[id].amount;\r\n            to.transfer(amount);\r\n            return;\r\n        }\r\n        if(approvals[msg.sender][id] == false){\r\n            approvals[msg.sender][id] = true;\r\n            transfers[id].approvals++;\r\n        }\r\n    }\r\n\r\n    modifier onlyApprover(){\r\n        bool allowed = false;\r\n        for(uint i = 0; i< approvers.length; i++){\r\n            if(approvers[i] == msg.sender){\r\n                allowed = true;\r\n            }\r\n        }\r\n        require(allowed = true, 'only approver allowed');\r\n        _;\r\n    }\r\n}",
  "sourcePath": "C:\\Users\\davidegarofalo\\Desktop\\Dapp30\\13-multisig-wallet\\contracts\\MultiSigWallet.sol",
  "compiler": {
    "name": "solc",
    "version": "0.8.13+commit.abaa5c0e.Emscripten.clang"
  },
  "schemaVersion": "3.4.7",
  "updatedAt": "2022-05-16T12:07:34.032Z",
  "networkType": "ethereum",
  "devdoc": {
    "kind": "dev",
    "methods": {},
    "version": 1
  },
  "userdoc": {
    "kind": "user",
    "methods": {},
    "version": 1
  }
}