{
  "contractName": "SplitPayment",
  "abi": [
    {
      "inputs": [
        {
          "internalType": "address",
          "name": "_owner",
          "type": "address"
        }
      ],
      "stateMutability": "nonpayable",
      "type": "constructor"
    },
    {
      "inputs": [],
      "name": "owner",
      "outputs": [
        {
          "internalType": "address",
          "name": "",
          "type": "address"
        }
      ],
      "stateMutability": "view",
      "type": "function"
    },
    {
      "inputs": [
        {
          "internalType": "address payable[]",
          "name": "to",
          "type": "address[]"
        },
        {
          "internalType": "uint256[]",
          "name": "amount",
          "type": "uint256[]"
        }
      ],
      "name": "send",
      "outputs": [],
      "stateMutability": "payable",
      "type": "function"
    }
  ],
  "bytecode": "0x608060405234801561001057600080fd5b50604051610884380380610884833981810160405281019061003291906100db565b806000806101000a81548173ffffffffffffffffffffffffffffffffffffffff021916908373ffffffffffffffffffffffffffffffffffffffff16021790555050610108565b600080fd5b600073ffffffffffffffffffffffffffffffffffffffff82169050919050565b60006100a88261007d565b9050919050565b6100b88161009d565b81146100c357600080fd5b50565b6000815190506100d5816100af565b92915050565b6000602082840312156100f1576100f0610078565b5b60006100ff848285016100c6565b91505092915050565b61076d806101176000396000f3fe6080604052600436106100295760003560e01c80638da5cb5b1461002e578063a645ff5f14610059575b600080fd5b34801561003a57600080fd5b50610043610075565b604051610050919061024b565b60405180910390f35b610073600480360381019061006e919061050a565b610099565b005b60008054906101000a900473ffffffffffffffffffffffffffffffffffffffff1681565b60008054906101000a900473ffffffffffffffffffffffffffffffffffffffff1673ffffffffffffffffffffffffffffffffffffffff163373ffffffffffffffffffffffffffffffffffffffff1614610127576040517f08c379a000000000000000000000000000000000000000000000000000000000815260040161011e906105df565b60405180910390fd5b805182511461016b576040517f08c379a000000000000000000000000000000000000000000000000000000000815260040161016290610671565b60405180910390fd5b60005b82518110156102055782818151811061018a57610189610691565b5b602002602001015173ffffffffffffffffffffffffffffffffffffffff166108fc8383815181106101be576101bd610691565b5b60200260200101519081150290604051600060405180830381858888f193505050501580156101f1573d6000803e3d6000fd5b5080806101fd906106ef565b91505061016e565b505050565b600073ffffffffffffffffffffffffffffffffffffffff82169050919050565b60006102358261020a565b9050919050565b6102458161022a565b82525050565b6000602082019050610260600083018461023c565b92915050565b6000604051905090565b600080fd5b600080fd5b600080fd5b6000601f19601f8301169050919050565b7f4e487b7100000000000000000000000000000000000000000000000000000000600052604160045260246000fd5b6102c88261027f565b810181811067ffffffffffffffff821117156102e7576102e6610290565b5b80604052505050565b60006102fa610266565b905061030682826102bf565b919050565b600067ffffffffffffffff82111561032657610325610290565b5b602082029050602081019050919050565b600080fd5b60006103478261020a565b9050919050565b6103578161033c565b811461036257600080fd5b50565b6000813590506103748161034e565b92915050565b600061038d6103888461030b565b6102f0565b905080838252602082019050602084028301858111156103b0576103af610337565b5b835b818110156103d957806103c58882610365565b8452602084019350506020810190506103b2565b5050509392505050565b600082601f8301126103f8576103f761027a565b5b813561040884826020860161037a565b91505092915050565b600067ffffffffffffffff82111561042c5761042b610290565b5b602082029050602081019050919050565b6000819050919050565b6104508161043d565b811461045b57600080fd5b50565b60008135905061046d81610447565b92915050565b600061048661048184610411565b6102f0565b905080838252602082019050602084028301858111156104a9576104a8610337565b5b835b818110156104d257806104be888261045e565b8452602084019350506020810190506104ab565b5050509392505050565b600082601f8301126104f1576104f061027a565b5b8135610501848260208601610473565b91505092915050565b6000806040838503121561052157610520610270565b5b600083013567ffffffffffffffff81111561053f5761053e610275565b5b61054b858286016103e3565b925050602083013567ffffffffffffffff81111561056c5761056b610275565b5b610578858286016104dc565b9150509250929050565b600082825260208201905092915050565b7f6f6e6c79206f776e65722063616e2073656e64207472616e73616374696f6e73600082015250565b60006105c9602083610582565b91506105d482610593565b602082019050919050565b600060208201905081810360008301526105f8816105bc565b9050919050565b7f746f20616e6420616d6f756e7420617272617973206d7573742068617665207360008201527f616d65206c656e67746800000000000000000000000000000000000000000000602082015250565b600061065b602a83610582565b9150610666826105ff565b604082019050919050565b6000602082019050818103600083015261068a8161064e565b9050919050565b7f4e487b7100000000000000000000000000000000000000000000000000000000600052603260045260246000fd5b7f4e487b7100000000000000000000000000000000000000000000000000000000600052601160045260246000fd5b60006106fa8261043d565b91507fffffffffffffffffffffffffffffffffffffffffffffffffffffffffffffffff820361072c5761072b6106c0565b5b60018201905091905056fea26469706673582212201e4048ea7801bb516b543ef2b916bf382fb001337ed6e48faafb4e1b6bef1e6264736f6c634300080d0033",
  "immutableReferences": {},
  "source": "pragma solidity ^0.8.0;\r\n\r\ncontract SplitPayment {\r\n    address public owner;\r\n\r\n    constructor(address _owner) {\r\n        owner = _owner;\r\n    }\r\n\r\n    function send(address payable[] memory to, uint[] memory amount) public payable onlyOwner(){\r\n        require( to.length == amount.length, 'to and amount arrays must have same length');\r\n        for(uint i = 0; i < to.length; i++){\r\n            to[i].transfer(amount[i]);\r\n        }\r\n    }\r\n\r\n\r\n    modifier onlyOwner() {\r\n        require(msg.sender == owner, 'only owner can send transactions');\r\n        _;\r\n    }\r\n}",
  "sourcePath": "C:\\Users\\davidegarofalo\\Desktop\\Dapp30\\7-split-payment\\contracts\\SplitPayment.sol",
  "compiler": {
    "name": "solc",
    "version": "0.8.13+commit.abaa5c0e.Emscripten.clang"
  },
  "schemaVersion": "3.4.7",
  "updatedAt": "2022-05-15T07:44:41.444Z",
  "devdoc": {
    "kind": "dev",
    "methods": {},
    "version": 1
  },
  "userdoc": {
    "kind": "user",
    "methods": {},
    "version": 1
  }
}