{
  "contractName": "EtherWallet",
  "abi": [
    {
      "inputs": [
        {
          "internalType": "address",
          "name": "_owner",
          "type": "address"
        }
      ],
      "stateMutability": "nonpayable",
      "type": "constructor"
    },
    {
      "inputs": [],
      "name": "owner",
      "outputs": [
        {
          "internalType": "address",
          "name": "",
          "type": "address"
        }
      ],
      "stateMutability": "view",
      "type": "function",
      "constant": true
    },
    {
      "inputs": [],
      "name": "deposit",
      "outputs": [],
      "stateMutability": "payable",
      "type": "function",
      "payable": true
    },
    {
      "inputs": [
        {
          "internalType": "address payable",
          "name": "to",
          "type": "address"
        },
        {
          "internalType": "uint256",
          "name": "amount",
          "type": "uint256"
        }
      ],
      "name": "send",
      "outputs": [],
      "stateMutability": "nonpayable",
      "type": "function"
    },
    {
      "inputs": [],
      "name": "balanceOf",
      "outputs": [
        {
          "internalType": "uint256",
          "name": "",
          "type": "uint256"
        }
      ],
      "stateMutability": "view",
      "type": "function",
      "constant": true
    }
  ],
  "bytecode": "0x608060405234801561001057600080fd5b506040516104e23803806104e2833981810160405281019061003291906100db565b806000806101000a81548173ffffffffffffffffffffffffffffffffffffffff021916908373ffffffffffffffffffffffffffffffffffffffff16021790555050610108565b600080fd5b600073ffffffffffffffffffffffffffffffffffffffff82169050919050565b60006100a88261007d565b9050919050565b6100b88161009d565b81146100c357600080fd5b50565b6000815190506100d5816100af565b92915050565b6000602082840312156100f1576100f0610078565b5b60006100ff848285016100c6565b91505092915050565b6103cb806101176000396000f3fe60806040526004361061003f5760003560e01c8063722713f7146100445780638da5cb5b1461006f578063d0679d341461009a578063d0e30db0146100c3575b600080fd5b34801561005057600080fd5b506100596100cd565b60405161006691906101f2565b60405180910390f35b34801561007b57600080fd5b506100846100d5565b604051610091919061024e565b60405180910390f35b3480156100a657600080fd5b506100c160048036038101906100bc91906102d8565b6100f9565b005b6100cb6101d7565b005b600047905090565b60008054906101000a900473ffffffffffffffffffffffffffffffffffffffff1681565b60008054906101000a900473ffffffffffffffffffffffffffffffffffffffff1673ffffffffffffffffffffffffffffffffffffffff163373ffffffffffffffffffffffffffffffffffffffff1603610198578173ffffffffffffffffffffffffffffffffffffffff166108fc829081150290604051600060405180830381858888f19350505050158015610192573d6000803e3d6000fd5b506101d3565b6040517f08c379a00000000000000000000000000000000000000000000000000000000081526004016101ca90610375565b60405180910390fd5b5050565b565b6000819050919050565b6101ec816101d9565b82525050565b600060208201905061020760008301846101e3565b92915050565b600073ffffffffffffffffffffffffffffffffffffffff82169050919050565b60006102388261020d565b9050919050565b6102488161022d565b82525050565b6000602082019050610263600083018461023f565b92915050565b600080fd5b60006102798261020d565b9050919050565b6102898161026e565b811461029457600080fd5b50565b6000813590506102a681610280565b92915050565b6102b5816101d9565b81146102c057600080fd5b50565b6000813590506102d2816102ac565b92915050565b600080604083850312156102ef576102ee610269565b5b60006102fd85828601610297565b925050602061030e858286016102c3565b9150509250929050565b600082825260208201905092915050565b7f53656e646572206973206e6f7420616c6c6f7765640000000000000000000000600082015250565b600061035f601583610318565b915061036a82610329565b602082019050919050565b6000602082019050818103600083015261038e81610352565b905091905056fea2646970667358221220e38edb35c3e9d7f33171ab1ce2ba62213512d209fcbbe13ea178c23a8e340c5c64736f6c634300080d0033",
  "immutableReferences": {},
  "source": "pragma solidity ^0.8.0;\r\n\r\ncontract EtherWallet {\r\n    address public owner;\r\n\r\n    constructor(address _owner) {\r\n        owner = _owner;\r\n    }\r\n\r\n    function deposit() public payable {\r\n    }\r\n\r\n    function send(address payable to, uint amount) public {\r\n        if(msg.sender == owner){\r\n            to.transfer(amount);\r\n            return;\r\n        }\r\n        revert('Sender is not allowed');\r\n    }\r\n\r\n    function balanceOf() view public returns(uint) {\r\n        return address(this).balance;\r\n    }\r\n\r\n\r\n}",
  "sourcePath": "C:\\Users\\davidegarofalo\\Desktop\\Dapp30\\6-ether-wallet\\contracts\\EtherWallet.sol",
  "compiler": {
    "name": "solc",
    "version": "0.8.13+commit.abaa5c0e.Emscripten.clang"
  },
  "schemaVersion": "3.4.7",
  "updatedAt": "2022-05-15T07:05:05.806Z",
  "networkType": "ethereum",
  "devdoc": {
    "kind": "dev",
    "methods": {},
    "version": 1
  },
  "userdoc": {
    "kind": "user",
    "methods": {},
    "version": 1
  }
}