{
  "contractName": "Voting",
  "abi": [
    {
      "inputs": [],
      "stateMutability": "nonpayable",
      "type": "constructor"
    },
    {
      "inputs": [],
      "name": "admin",
      "outputs": [
        {
          "internalType": "address",
          "name": "",
          "type": "address"
        }
      ],
      "stateMutability": "view",
      "type": "function",
      "constant": true
    },
    {
      "inputs": [
        {
          "internalType": "address",
          "name": "",
          "type": "address"
        }
      ],
      "name": "voters",
      "outputs": [
        {
          "internalType": "bool",
          "name": "",
          "type": "bool"
        }
      ],
      "stateMutability": "view",
      "type": "function",
      "constant": true
    },
    {
      "inputs": [
        {
          "internalType": "address",
          "name": "",
          "type": "address"
        },
        {
          "internalType": "uint256",
          "name": "",
          "type": "uint256"
        }
      ],
      "name": "votes",
      "outputs": [
        {
          "internalType": "bool",
          "name": "",
          "type": "bool"
        }
      ],
      "stateMutability": "view",
      "type": "function",
      "constant": true
    },
    {
      "inputs": [
        {
          "internalType": "address[]",
          "name": "_voters",
          "type": "address[]"
        }
      ],
      "name": "addVoters",
      "outputs": [],
      "stateMutability": "nonpayable",
      "type": "function"
    },
    {
      "inputs": [
        {
          "internalType": "string",
          "name": "name",
          "type": "string"
        },
        {
          "internalType": "string[]",
          "name": "choices",
          "type": "string[]"
        },
        {
          "internalType": "uint256",
          "name": "offset",
          "type": "uint256"
        }
      ],
      "name": "createBallot",
      "outputs": [],
      "stateMutability": "nonpayable",
      "type": "function"
    },
    {
      "inputs": [
        {
          "internalType": "uint256",
          "name": "ballotId",
          "type": "uint256"
        },
        {
          "internalType": "uint256",
          "name": "choiceId",
          "type": "uint256"
        }
      ],
      "name": "vote",
      "outputs": [],
      "stateMutability": "nonpayable",
      "type": "function"
    },
    {
      "inputs": [
        {
          "internalType": "uint256",
          "name": "ballotId",
          "type": "uint256"
        }
      ],
      "name": "results",
      "outputs": [
        {
          "components": [
            {
              "internalType": "uint256",
              "name": "id",
              "type": "uint256"
            },
            {
              "internalType": "string",
              "name": "name",
              "type": "string"
            },
            {
              "internalType": "uint256",
              "name": "votes",
              "type": "uint256"
            }
          ],
          "internalType": "struct Voting.Choice[]",
          "name": "",
          "type": "tuple[]"
        }
      ],
      "stateMutability": "view",
      "type": "function",
      "constant": true
    }
  ],
  "bytecode": "0x608060405234801561001057600080fd5b5033600360006101000a81548173ffffffffffffffffffffffffffffffffffffffff021916908373ffffffffffffffffffffffffffffffffffffffff16021790555061149e806100616000396000f3fe608060405234801561001057600080fd5b506004361061007d5760003560e01c80639f2524ee1161005b5780639f2524ee146100ea578063a3ec138d1461011a578063b384abef1461014a578063f851a440146101665761007d565b80631b0c27da1461008257806320faae8e146100b25780638203373a146100ce575b600080fd5b61009c600480360381019061009791906109ab565b610184565b6040516100a99190610b92565b60405180910390f35b6100cc60048036038101906100c79190610dcf565b6102f8565b005b6100e860048036038101906100e39190610eb5565b6104cb565b005b61010460048036038101906100ff9190610f60565b6105ff565b6040516101119190610fbb565b60405180910390f35b610134600480360381019061012f9190610fd6565b61062e565b6040516101419190610fbb565b60405180910390f35b610164600480360381019061015f9190611003565b61064e565b005b61016e610898565b60405161017b9190611052565b60405180910390f35b606060016000838152602001908152602001600020600301544210156101df576040517f08c379a00000000000000000000000000000000000000000000000000000000081526004016101d6906110f0565b60405180910390fd5b60016000838152602001908152602001600020600201805480602002602001604051908101604052809291908181526020016000905b828210156102ed5783829060005260206000209060030201604051806060016040529081600082015481526020016001820180546102529061113f565b80601f016020809104026020016040519081016040528092919081815260200182805461027e9061113f565b80156102cb5780601f106102a0576101008083540402835291602001916102cb565b820191906000526020600020905b8154815290600101906020018083116102ae57829003601f168201915b5050505050815260200160028201548152505081526020019060010190610215565b505050509050919050565b600360009054906101000a900473ffffffffffffffffffffffffffffffffffffffff1673ffffffffffffffffffffffffffffffffffffffff163373ffffffffffffffffffffffffffffffffffffffff1614610388576040517f08c379a000000000000000000000000000000000000000000000000000000000815260040161037f906111bc565b60405180910390fd5b600254600160006002548152602001908152602001600020600001819055508260016000600254815260200190815260200160002060010190805190602001906103d39291906108be565b5080426103e0919061120b565b6001600060025481526020019081526020016000206003018190555060005b82518110156104c557600160006002548152602001908152602001600020600201604051806060016040528083815260200185848151811061044457610443611261565b5b60200260200101518152602001600081525090806001815401808255809150506001900390600052602060002090600302016000909190919091506000820151816000015560208201518160010190805190602001906104a59291906108be565b5060408201518160020155505080806104bd90611290565b9150506103ff565b50505050565b600360009054906101000a900473ffffffffffffffffffffffffffffffffffffffff1673ffffffffffffffffffffffffffffffffffffffff163373ffffffffffffffffffffffffffffffffffffffff161461055b576040517f08c379a0000000000000000000000000000000000000000000000000000000008152600401610552906111bc565b60405180910390fd5b60005b828290508110156105fa57600160008085858581811061058157610580611261565b5b90506020020160208101906105969190610fd6565b73ffffffffffffffffffffffffffffffffffffffff1673ffffffffffffffffffffffffffffffffffffffff16815260200190815260200160002060006101000a81548160ff02191690831515021790555080806105f290611290565b91505061055e565b505050565b60046020528160005260406000206020528060005260406000206000915091509054906101000a900460ff1681565b60006020528060005260406000206000915054906101000a900460ff1681565b600115156000803373ffffffffffffffffffffffffffffffffffffffff1673ffffffffffffffffffffffffffffffffffffffff16815260200190815260200160002060009054906101000a900460ff161515146106e0576040517f08c379a00000000000000000000000000000000000000000000000000000000081526004016106d790611324565b60405180910390fd5b60001515600460003373ffffffffffffffffffffffffffffffffffffffff1673ffffffffffffffffffffffffffffffffffffffff168152602001908152602001600020600084815260200190815260200160002060009054906101000a900460ff16151514610784576040517f08c379a000000000000000000000000000000000000000000000000000000000815260040161077b906113b6565b60405180910390fd5b600160008381526020019081526020016000206003015442106107dc576040517f08c379a00000000000000000000000000000000000000000000000000000000081526004016107d390611448565b60405180910390fd5b60016000838152602001908152602001600020600201818154811061080457610803611261565b5b9060005260206000209060030201600201600081548092919061082690611290565b91905055506001600460003373ffffffffffffffffffffffffffffffffffffffff1673ffffffffffffffffffffffffffffffffffffffff168152602001908152602001600020600084815260200190815260200160002060006101000a81548160ff0219169083151502179055505050565b600360009054906101000a900473ffffffffffffffffffffffffffffffffffffffff1681565b8280546108ca9061113f565b90600052602060002090601f0160209004810192826108ec5760008555610933565b82601f1061090557805160ff1916838001178555610933565b82800160010185558215610933579182015b82811115610932578251825591602001919060010190610917565b5b5090506109409190610944565b5090565b5b8082111561095d576000816000905550600101610945565b5090565b6000604051905090565b600080fd5b600080fd5b6000819050919050565b61098881610975565b811461099357600080fd5b50565b6000813590506109a58161097f565b92915050565b6000602082840312156109c1576109c061096b565b5b60006109cf84828501610996565b91505092915050565b600081519050919050565b600082825260208201905092915050565b6000819050602082019050919050565b610a0d81610975565b82525050565b600081519050919050565b600082825260208201905092915050565b60005b83811015610a4d578082015181840152602081019050610a32565b83811115610a5c576000848401525b50505050565b6000601f19601f8301169050919050565b6000610a7e82610a13565b610a888185610a1e565b9350610a98818560208601610a2f565b610aa181610a62565b840191505092915050565b6000606083016000830151610ac46000860182610a04565b5060208301518482036020860152610adc8282610a73565b9150506040830151610af16040860182610a04565b508091505092915050565b6000610b088383610aac565b905092915050565b6000602082019050919050565b6000610b28826109d8565b610b3281856109e3565b935083602082028501610b44856109f4565b8060005b85811015610b805784840389528151610b618582610afc565b9450610b6c83610b10565b925060208a01995050600181019050610b48565b50829750879550505050505092915050565b60006020820190508181036000830152610bac8184610b1d565b905092915050565b600080fd5b600080fd5b7f4e487b7100000000000000000000000000000000000000000000000000000000600052604160045260246000fd5b610bf682610a62565b810181811067ffffffffffffffff82111715610c1557610c14610bbe565b5b80604052505050565b6000610c28610961565b9050610c348282610bed565b919050565b600067ffffffffffffffff821115610c5457610c53610bbe565b5b610c5d82610a62565b9050602081019050919050565b82818337600083830152505050565b6000610c8c610c8784610c39565b610c1e565b905082815260208101848484011115610ca857610ca7610bb9565b5b610cb3848285610c6a565b509392505050565b600082601f830112610cd057610ccf610bb4565b5b8135610ce0848260208601610c79565b91505092915050565b600067ffffffffffffffff821115610d0457610d03610bbe565b5b602082029050602081019050919050565b600080fd5b6000610d2d610d2884610ce9565b610c1e565b90508083825260208201905060208402830185811115610d5057610d4f610d15565b5b835b81811015610d9757803567ffffffffffffffff811115610d7557610d74610bb4565b5b808601610d828982610cbb565b85526020850194505050602081019050610d52565b5050509392505050565b600082601f830112610db657610db5610bb4565b5b8135610dc6848260208601610d1a565b91505092915050565b600080600060608486031215610de857610de761096b565b5b600084013567ffffffffffffffff811115610e0657610e05610970565b5b610e1286828701610cbb565b935050602084013567ffffffffffffffff811115610e3357610e32610970565b5b610e3f86828701610da1565b9250506040610e5086828701610996565b9150509250925092565b600080fd5b60008083601f840112610e7557610e74610bb4565b5b8235905067ffffffffffffffff811115610e9257610e91610e5a565b5b602083019150836020820283011115610eae57610ead610d15565b5b9250929050565b60008060208385031215610ecc57610ecb61096b565b5b600083013567ffffffffffffffff811115610eea57610ee9610970565b5b610ef685828601610e5f565b92509250509250929050565b600073ffffffffffffffffffffffffffffffffffffffff82169050919050565b6000610f2d82610f02565b9050919050565b610f3d81610f22565b8114610f4857600080fd5b50565b600081359050610f5a81610f34565b92915050565b60008060408385031215610f7757610f7661096b565b5b6000610f8585828601610f4b565b9250506020610f9685828601610996565b9150509250929050565b60008115159050919050565b610fb581610fa0565b82525050565b6000602082019050610fd06000830184610fac565b92915050565b600060208284031215610fec57610feb61096b565b5b6000610ffa84828501610f4b565b91505092915050565b6000806040838503121561101a5761101961096b565b5b600061102885828601610996565b925050602061103985828601610996565b9150509250929050565b61104c81610f22565b82525050565b60006020820190506110676000830184611043565b92915050565b600082825260208201905092915050565b7f63616e6e6f7420736565207468652062616c6c6f7420726573756c742062656660008201527f6f72652062616c6c6f7420656e64000000000000000000000000000000000000602082015250565b60006110da602e8361106d565b91506110e58261107e565b604082019050919050565b60006020820190508181036000830152611109816110cd565b9050919050565b7f4e487b7100000000000000000000000000000000000000000000000000000000600052602260045260246000fd5b6000600282049050600182168061115757607f821691505b60208210810361116a57611169611110565b5b50919050565b7f6f6e6c792061646d696e00000000000000000000000000000000000000000000600082015250565b60006111a6600a8361106d565b91506111b182611170565b602082019050919050565b600060208201905081810360008301526111d581611199565b9050919050565b7f4e487b7100000000000000000000000000000000000000000000000000000000600052601160045260246000fd5b600061121682610975565b915061122183610975565b9250827fffffffffffffffffffffffffffffffffffffffffffffffffffffffffffffffff03821115611256576112556111dc565b5b828201905092915050565b7f4e487b7100000000000000000000000000000000000000000000000000000000600052603260045260246000fd5b600061129b82610975565b91507fffffffffffffffffffffffffffffffffffffffffffffffffffffffffffffffff82036112cd576112cc6111dc565b5b600182019050919050565b7f6f6e6c7920766f746572732063616e20766f7465000000000000000000000000600082015250565b600061130e60148361106d565b9150611319826112d8565b602082019050919050565b6000602082019050818103600083015261133d81611301565b9050919050565b7f766f7465722063616e206f6e6c7920766f7465206f6e636520666f722061206260008201527f616c6c6f74000000000000000000000000000000000000000000000000000000602082015250565b60006113a060258361106d565b91506113ab82611344565b604082019050919050565b600060208201905081810360008301526113cf81611393565b9050919050565b7f63616e206f6e6c7920766f746520756e74696c2062616c6c6f7420656e64206460008201527f6174650000000000000000000000000000000000000000000000000000000000602082015250565b600061143260238361106d565b915061143d826113d6565b604082019050919050565b6000602082019050818103600083015261146181611425565b905091905056fea2646970667358221220af597d92445098f9b0c7a30ed1dbd1a0f16c7c181e75cc298b16ade346f3f0ef64736f6c634300080d0033",
  "immutableReferences": {},
  "source": "pragma solidity ^0.8.0;\r\n\r\ncontract Voting {\r\n    // key => value to get if an address is allowed to vote\r\n    mapping(address => bool) public voters;\r\n    struct Choice {\r\n        uint id;\r\n        string name;\r\n        uint votes;\r\n    }\r\n    struct Ballot {\r\n        uint id;\r\n        string name;\r\n        Choice[] choices;\r\n        uint end;       // dates are integers in Solidity. They're unix timestamps\r\n    }\r\n    mapping(uint => Ballot) ballots;\r\n    uint nextBallotId;\r\n    address public admin;\r\n    mapping(address => mapping(uint => bool)) public votes;\r\n\r\n\r\n    constructor(){\r\n        admin = msg.sender;\r\n    }\r\n\r\n    function addVoters(address[] calldata _voters) external onlyAdmin {\r\n        for(uint i=0; i< _voters.length; i++){\r\n            voters[_voters[i]] = true;\r\n        }\r\n    }\r\n\r\n    function createBallot(string memory name, string[] memory choices, uint offset) public onlyAdmin {\r\n        // You can access an object that is not been created yet\r\n        ballots[nextBallotId].id = nextBallotId;\r\n        ballots[nextBallotId].name = name;\r\n        ballots[nextBallotId].end = block.timestamp + offset;\r\n        for(uint i=0; i< choices.length; i++) {\r\n            ballots[nextBallotId].choices.push(Choice(i,choices[i],0));\r\n        }\r\n    }\r\n\r\n    function vote(uint ballotId, uint choiceId) external {\r\n        require(voters[msg.sender] == true, 'only voters can vote');\r\n        require(votes[msg.sender][ballotId] == false, 'voter can only vote once for a ballot');\r\n        require(block.timestamp < ballots[ballotId].end, 'can only vote until ballot end date');\r\n\r\n        ballots[ballotId].choices[choiceId].votes++;\r\n        votes[msg.sender][ballotId] = true;\r\n    }\r\n\r\n    function results(uint ballotId) view external returns(Choice[] memory){\r\n        require(block.timestamp >= ballots[ballotId].end, 'cannot see the ballot result before ballot end');\r\n        return ballots[ballotId].choices;\r\n    }\r\n\r\n    modifier onlyAdmin() {\r\n        require(msg.sender == admin, 'only admin');\r\n        _;\r\n    }\r\n}",
  "sourcePath": "C:\\Users\\davidegarofalo\\Desktop\\Dapp30\\14-voting\\contracts\\Voting.sol",
  "compiler": {
    "name": "solc",
    "version": "0.8.13+commit.abaa5c0e.Emscripten.clang"
  },
  "schemaVersion": "3.4.7",
  "updatedAt": "2022-05-17T11:51:26.242Z",
  "networkType": "ethereum",
  "devdoc": {
    "kind": "dev",
    "methods": {},
    "version": 1
  },
  "userdoc": {
    "kind": "user",
    "methods": {},
    "version": 1
  }
}